{
  "transactions": [
    {
      "hash": "0xd69e03cb08dba14e7a85687c9fe1c09e94884450f337df8f7e55b534599a0624",
      "transactionType": "CALL",
      "contractName": "USDCBridge",
      "contractAddress": "0xd987e37667b7dd9faee3274cd96272205ea1db9e",
      "function": "allowlistSourceChain(uint64,bool)",
      "arguments": [
        "16015286601757825753",
        "true"
      ],
      "transaction": {
        "from": "0x61408ec3bc83622af4e14c07a42af1ac553a8dac",
        "to": "0xd987e37667b7dd9faee3274cd96272205ea1db9e",
        "gas": "0xfae5",
        "value": "0x0",
        "input": "0xdb04fa49000000000000000000000000000000000000000000000000de41ba4fc9d91ad90000000000000000000000000000000000000000000000000000000000000001",
        "nonce": "0x88",
        "chainId": "0x14a34"
      },
      "additionalContracts": [],
      "isFixedGasLimit": false
    },
    {
      "hash": "0xe0f8c777d1f17642acd1242ddf19b0b5fc6924c5f0b518131a1a5c90ceaeb7f3",
      "transactionType": "CALL",
      "contractName": "USDCBridge",
      "contractAddress": "0xd987e37667b7dd9faee3274cd96272205ea1db9e",
      "function": "allowlistSender(address,bool)",
      "arguments": [
        "0x03D8487343D7e5e8E8bB81039083EF9652B4c2ba",
        "true"
      ],
      "transaction": {
        "from": "0x61408ec3bc83622af4e14c07a42af1ac553a8dac",
        "to": "0xd987e37667b7dd9faee3274cd96272205ea1db9e",
        "gas": "0x10af7",
        "value": "0x0",
        "input": "0xeab5b02c00000000000000000000000003d8487343d7e5e8e8bb81039083ef9652b4c2ba0000000000000000000000000000000000000000000000000000000000000001",
        "nonce": "0x89",
        "chainId": "0x14a34"
      },
      "additionalContracts": [],
      "isFixedGasLimit": false
    }
  ],
  "receipts": [
    {
      "status": "0x1",
      "cumulativeGasUsed": "0x2600f",
      "logs": [],
      "logsBloom": "0x00000000000000000000000000000000000000000000000000000000000000000000000000000000000000000000000000000000000000000000000000000000000000000000000000000000000000000000000000000000000000000000000000000000000000000000000000000000000000000000000000000000000000000000000000000000000000000000000000000000000000000000000000000000000000000000000000000000000000000000000000000000000000000000000000000000000000000000000000000000000000000000000000000000000000000000000000000000000000000000000000000000000000000000000000000000",
      "type": "0x2",
      "transactionHash": "0xd69e03cb08dba14e7a85687c9fe1c09e94884450f337df8f7e55b534599a0624",
      "transactionIndex": "0x2",
      "blockHash": "0xb16caf0bd94bae59bd219059daeaf2eff164ae3a3dc98a54fa9faa6fd7ca5c6a",
      "blockNumber": "0x19ad377",
      "gasUsed": "0xb5a5",
      "effectiveGasPrice": "0xab7aa",
      "from": "0x61408ec3bc83622af4e14c07a42af1ac553a8dac",
      "to": "0xd987e37667b7dd9faee3274cd96272205ea1db9e",
      "contractAddress": null,
      "l1BaseFeeScalar": "0x44d",
      "l1BlobBaseFee": "0x343f",
      "l1BlobBaseFeeScalar": "0xa118b",
      "l1Fee": "0xd7a06",
      "l1GasPrice": "0x174",
      "l1GasUsed": "0x640"
    },
    {
      "status": "0x1",
      "cumulativeGasUsed": "0x3169a",
      "logs": [],
      "logsBloom": "0x00000000000000000000000000000000000000000000000000000000000000000000000000000000000000000000000000000000000000000000000000000000000000000000000000000000000000000000000000000000000000000000000000000000000000000000000000000000000000000000000000000000000000000000000000000000000000000000000000000000000000000000000000000000000000000000000000000000000000000000000000000000000000000000000000000000000000000000000000000000000000000000000000000000000000000000000000000000000000000000000000000000000000000000000000000000",
      "type": "0x2",
      "transactionHash": "0xe0f8c777d1f17642acd1242ddf19b0b5fc6924c5f0b518131a1a5c90ceaeb7f3",
      "transactionIndex": "0x3",
      "blockHash": "0xb16caf0bd94bae59bd219059daeaf2eff164ae3a3dc98a54fa9faa6fd7ca5c6a",
      "blockNumber": "0x19ad377",
      "gasUsed": "0xb68b",
      "effectiveGasPrice": "0xab7aa",
      "from": "0x61408ec3bc83622af4e14c07a42af1ac553a8dac",
      "to": "0xd987e37667b7dd9faee3274cd96272205ea1db9e",
      "contractAddress": null,
      "l1BaseFeeScalar": "0x44d",
      "l1BlobBaseFee": "0x343f",
      "l1BlobBaseFeeScalar": "0xa118b",
      "l1Fee": "0xd7a06",
      "l1GasPrice": "0x174",
      "l1GasUsed": "0x640"
    }
  ],
  "libraries": [],
  "pending": [],
  "returns": {},
  "timestamp": 1749616080,
  "chain": 84532,
  "commit": "722c269"
}