{
  "transactions": [
    {
      "hash": "0x662dcad9dcd1340f1732334f4e747f417d31c936233a14b19751e194a224bad5",
      "transactionType": "CALL",
      "contractName": "USDCBridge",
      "contractAddress": "0x03d8487343d7e5e8e8bb81039083ef9652b4c2ba",
      "function": "allowlistDestinationChain(uint64,bool)",
      "arguments": [
        "5224473277236331295",
        "true"
      ],
      "transaction": {
        "from": "0x61408ec3bc83622af4e14c07a42af1ac553a8dac",
        "to": "0x03d8487343d7e5e8e8bb81039083ef9652b4c2ba",
        "gas": "0xfae6",
        "value": "0x0",
        "input": "0x96d3b83d00000000000000000000000000000000000000000000000048810ec3e431431f0000000000000000000000000000000000000000000000000000000000000001",
        "nonce": "0x74",
        "chainId": "0xaa36a7"
      },
      "additionalContracts": [],
      "isFixedGasLimit": false
    }
  ],
  "receipts": [
    {
      "status": "0x1",
      "cumulativeGasUsed": "0xd62770",
      "logs": [],
      "logsBloom": "0x00000000000000000000000000000000000000000000000000000000000000000000000000000000000000000000000000000000000000000000000000000000000000000000000000000000000000000000000000000000000000000000000000000000000000000000000000000000000000000000000000000000000000000000000000000000000000000000000000000000000000000000000000000000000000000000000000000000000000000000000000000000000000000000000000000000000000000000000000000000000000000000000000000000000000000000000000000000000000000000000000000000000000000000000000000000",
      "type": "0x2",
      "transactionHash": "0x662dcad9dcd1340f1732334f4e747f417d31c936233a14b19751e194a224bad5",
      "transactionIndex": "0xab",
      "blockHash": "0x58b85b0fe1f8e69482ef728ae5ace0190cbade13e062d06d9fff164218581533",
      "blockNumber": "0x820bfa",
      "gasUsed": "0xb5a6",
      "effectiveGasPrice": "0xf42b7",
      "from": "0x61408ec3bc83622af4e14c07a42af1ac553a8dac",
      "to": "0x03d8487343d7e5e8e8bb81039083ef9652b4c2ba",
      "contractAddress": null
    }
  ],
  "libraries": [],
  "pending": [],
  "returns": {},
  "timestamp": 1749613072,
  "chain": 11155111,
  "commit": "722c269"
}