{
  "transactions": [
    {
      "hash": "0xf9fdb68435584957a011ab3c564479f3f3f351241dd33e0e35aeb4566921cf21",
      "transactionType": "CALL",
      "contractName": "USDCBridge",
      "contractAddress": "0x03d8487343d7e5e8e8bb81039083ef9652b4c2ba",
      "function": "allowlistDestinationChain(uint64,bool)",
      "arguments": [
        "10344971235874465080",
        "true"
      ],
      "transaction": {
        "from": "0x61408ec3bc83622af4e14c07a42af1ac553a8dac",
        "to": "0x03d8487343d7e5e8e8bb81039083ef9652b4c2ba",
        "gas": "0xfae6",
        "value": "0x0",
        "input": "0x96d3b83d0000000000000000000000000000000000000000000000008f90b8876dee65380000000000000000000000000000000000000000000000000000000000000001",
        "nonce": "0x78",
        "chainId": "0xaa36a7"
      },
      "additionalContracts": [],
      "isFixedGasLimit": false
    }
  ],
  "receipts": [
    {
      "status": "0x1",
      "cumulativeGasUsed": "0xef0f24",
      "logs": [],
      "logsBloom": "0x00000000000000000000000000000000000000000000000000000000000000000000000000000000000000000000000000000000000000000000000000000000000000000000000000000000000000000000000000000000000000000000000000000000000000000000000000000000000000000000000000000000000000000000000000000000000000000000000000000000000000000000000000000000000000000000000000000000000000000000000000000000000000000000000000000000000000000000000000000000000000000000000000000000000000000000000000000000000000000000000000000000000000000000000000000000",
      "type": "0x2",
      "transactionHash": "0xf9fdb68435584957a011ab3c564479f3f3f351241dd33e0e35aeb4566921cf21",
      "transactionIndex": "0xa6",
      "blockHash": "0x277cc58498173a05b7de2edb9bd1a6bd81bd12dedb9f38f65b8ac230aeca1134",
      "blockNumber": "0x820cf3",
      "gasUsed": "0xb5a6",
      "effectiveGasPrice": "0xf43ba",
      "from": "0x61408ec3bc83622af4e14c07a42af1ac553a8dac",
      "to": "0x03d8487343d7e5e8e8bb81039083ef9652b4c2ba",
      "contractAddress": null
    }
  ],
  "libraries": [],
  "pending": [],
  "returns": {},
  "timestamp": 1749616058,
  "chain": 11155111,
  "commit": "722c269"
}