{
  "transactions": [
    {
      "hash": "0xc079eff74fb10d9151f23e7088dddf8cbcfee9132cb425d350869bd86ff4311e",
      "transactionType": "CALL",
      "contractName": "USDCBridge",
      "contractAddress": "0x03d8487343d7e5e8e8bb81039083ef9652b4c2ba",
      "function": "allowlistDestinationChain(uint64,bool)",
      "arguments": [
        "14767482510784806043",
        "true"
      ],
      "transaction": {
        "from": "0x61408ec3bc83622af4e14c07a42af1ac553a8dac",
        "to": "0x03d8487343d7e5e8e8bb81039083ef9652b4c2ba",
        "gas": "0xfae6",
        "value": "0x0",
        "input": "0x96d3b83d000000000000000000000000000000000000000000000000ccf0a31a221f3c9b0000000000000000000000000000000000000000000000000000000000000001",
        "nonce": "0x76",
        "chainId": "0xaa36a7"
      },
      "additionalContracts": [],
      "isFixedGasLimit": false
    }
  ],
  "receipts": [
    {
      "status": "0x1",
      "cumulativeGasUsed": "0xa12ec9",
      "logs": [],
      "logsBloom": "0x00000000000000000000000000000000000000000000000000000000000000000000000000000000000000000000000000000000000000000000000000000000000000000000000000000000000000000000000000000000000000000000000000000000000000000000000000000000000000000000000000000000000000000000000000000000000000000000000000000000000000000000000000000000000000000000000000000000000000000000000000000000000000000000000000000000000000000000000000000000000000000000000000000000000000000000000000000000000000000000000000000000000000000000000000000000",
      "type": "0x2",
      "transactionHash": "0xc079eff74fb10d9151f23e7088dddf8cbcfee9132cb425d350869bd86ff4311e",
      "transactionIndex": "0x76",
      "blockHash": "0xdd34a3787c63a9c536a80d84d7c1d409768f14d2acdc47b9bab89daf788adc17",
      "blockNumber": "0x820c92",
      "gasUsed": "0xb5a6",
      "effectiveGasPrice": "0xf4435",
      "from": "0x61408ec3bc83622af4e14c07a42af1ac553a8dac",
      "to": "0x03d8487343d7e5e8e8bb81039083ef9652b4c2ba",
      "contractAddress": null
    }
  ],
  "libraries": [],
  "pending": [],
  "returns": {},
  "timestamp": 1749614893,
  "chain": 11155111,
  "commit": "722c269"
}